{
  "_format": "hh-sol-artifact-1",
  "contractName": "GritNFT",
  "sourceName": "contracts/GritNFT.sol",
  "abi": [
    {
      "inputs": [],
      "stateMutability": "nonpayable",
      "type": "constructor"
    },
    {
      "anonymous": false,
      "inputs": [
        {
          "indexed": true,
          "internalType": "address",
          "name": "owner",
          "type": "address"
        },
        {
          "indexed": true,
          "internalType": "address",
          "name": "approved",
          "type": "address"
        },
        {
          "indexed": true,
          "internalType": "uint256",
          "name": "tokenId",
          "type": "uint256"
        }
      ],
      "name": "Approval",
      "type": "event"
    },
    {
      "anonymous": false,
      "inputs": [
        {
          "indexed": true,
          "internalType": "address",
          "name": "owner",
          "type": "address"
        },
        {
          "indexed": true,
          "internalType": "address",
          "name": "operator",
          "type": "address"
        },
        {
          "indexed": false,
          "internalType": "bool",
          "name": "approved",
          "type": "bool"
        }
      ],
      "name": "ApprovalForAll",
      "type": "event"
    },
    {
      "anonymous": false,
      "inputs": [
        {
          "indexed": false,
          "internalType": "address",
          "name": "sender",
          "type": "address"
        },
        {
          "indexed": false,
          "internalType": "uint256",
          "name": "tokenId",
          "type": "uint256"
        },
        {
          "indexed": false,
          "internalType": "string",
          "name": "name",
          "type": "string"
        },
        {
          "indexed": false,
          "internalType": "string",
          "name": "imageSVG",
          "type": "string"
        },
        {
          "indexed": false,
          "internalType": "string",
          "name": "description",
          "type": "string"
        },
        {
          "indexed": false,
          "internalType": "uint256",
          "name": "createdAt",
          "type": "uint256"
        },
        {
          "indexed": false,
          "internalType": "uint256",
          "name": "dueDate",
          "type": "uint256"
        }
      ],
      "name": "NewNFTMinted",
      "type": "event"
    },
    {
      "anonymous": false,
      "inputs": [
        {
          "indexed": true,
          "internalType": "address",
          "name": "from",
          "type": "address"
        },
        {
          "indexed": true,
          "internalType": "address",
          "name": "to",
          "type": "address"
        },
        {
          "indexed": true,
          "internalType": "uint256",
          "name": "tokenId",
          "type": "uint256"
        }
      ],
      "name": "Transfer",
      "type": "event"
    },
    {
      "inputs": [
        {
          "internalType": "address",
          "name": "to",
          "type": "address"
        },
        {
          "internalType": "uint256",
          "name": "tokenId",
          "type": "uint256"
        }
      ],
      "name": "approve",
      "outputs": [],
      "stateMutability": "nonpayable",
      "type": "function"
    },
    {
      "inputs": [
        {
          "internalType": "address",
          "name": "owner",
          "type": "address"
        }
      ],
      "name": "balanceOf",
      "outputs": [
        {
          "internalType": "uint256",
          "name": "",
          "type": "uint256"
        }
      ],
      "stateMutability": "view",
      "type": "function"
    },
    {
      "inputs": [
        {
          "internalType": "uint256",
          "name": "tokenId",
          "type": "uint256"
        }
      ],
      "name": "getApproved",
      "outputs": [
        {
          "internalType": "address",
          "name": "",
          "type": "address"
        }
      ],
      "stateMutability": "view",
      "type": "function"
    },
    {
      "inputs": [
        {
          "internalType": "uint256[]",
          "name": "tokenIds",
          "type": "uint256[]"
        }
      ],
      "name": "getMetadatas",
      "outputs": [
        {
          "components": [
            {
              "internalType": "string",
              "name": "name",
              "type": "string"
            },
            {
              "internalType": "string",
              "name": "imageSVG",
              "type": "string"
            },
            {
              "internalType": "string",
              "name": "description",
              "type": "string"
            },
            {
              "internalType": "uint256",
              "name": "createdAt",
              "type": "uint256"
            },
            {
              "internalType": "uint256",
              "name": "dueDate",
              "type": "uint256"
            },
            {
              "internalType": "uint256",
              "name": "achievedAt",
              "type": "uint256"
            }
          ],
          "internalType": "struct GritNFT.NftAttributes[]",
          "name": "",
          "type": "tuple[]"
        }
      ],
      "stateMutability": "view",
      "type": "function"
    },
    {
      "inputs": [
        {
          "internalType": "address",
          "name": "owner",
          "type": "address"
        }
      ],
      "name": "getTokenIds",
      "outputs": [
        {
          "internalType": "uint256[]",
          "name": "",
          "type": "uint256[]"
        }
      ],
      "stateMutability": "view",
      "type": "function"
    },
    {
      "inputs": [
        {
          "internalType": "address",
          "name": "owner",
          "type": "address"
        },
        {
          "internalType": "address",
          "name": "operator",
          "type": "address"
        }
      ],
      "name": "isApprovedForAll",
      "outputs": [
        {
          "internalType": "bool",
          "name": "",
          "type": "bool"
        }
      ],
      "stateMutability": "view",
      "type": "function"
    },
    {
      "inputs": [
        {
          "internalType": "uint256",
          "name": "tokenId",
          "type": "uint256"
        }
      ],
      "name": "isExpiredOf",
      "outputs": [
        {
          "internalType": "bool",
          "name": "",
          "type": "bool"
        }
      ],
      "stateMutability": "view",
      "type": "function"
    },
    {
      "inputs": [
        {
          "internalType": "uint256",
          "name": "tokenId",
          "type": "uint256"
        }
      ],
      "name": "isOwnerOf",
      "outputs": [
        {
          "internalType": "bool",
          "name": "",
          "type": "bool"
        }
      ],
      "stateMutability": "view",
      "type": "function"
    },
    {
      "inputs": [
        {
          "internalType": "string",
          "name": "name",
          "type": "string"
        },
        {
          "internalType": "string",
          "name": "description",
          "type": "string"
        },
        {
          "internalType": "uint256",
          "name": "dueDate",
          "type": "uint256"
        }
      ],
      "name": "makeNFT",
      "outputs": [],
      "stateMutability": "nonpayable",
      "type": "function"
    },
    {
      "inputs": [],
      "name": "name",
      "outputs": [
        {
          "internalType": "string",
          "name": "",
          "type": "string"
        }
      ],
      "stateMutability": "view",
      "type": "function"
    },
    {
      "inputs": [
        {
          "internalType": "uint256",
          "name": "tokenId",
          "type": "uint256"
        }
      ],
      "name": "ownerOf",
      "outputs": [
        {
          "internalType": "address",
          "name": "",
          "type": "address"
        }
      ],
      "stateMutability": "view",
      "type": "function"
    },
    {
      "inputs": [
        {
          "internalType": "address",
          "name": "from",
          "type": "address"
        },
        {
          "internalType": "address",
          "name": "to",
          "type": "address"
        },
        {
          "internalType": "uint256",
          "name": "tokenId",
          "type": "uint256"
        }
      ],
      "name": "safeTransferFrom",
      "outputs": [],
      "stateMutability": "nonpayable",
      "type": "function"
    },
    {
      "inputs": [
        {
          "internalType": "address",
          "name": "from",
          "type": "address"
        },
        {
          "internalType": "address",
          "name": "to",
          "type": "address"
        },
        {
          "internalType": "uint256",
          "name": "tokenId",
          "type": "uint256"
        },
        {
          "internalType": "bytes",
          "name": "data",
          "type": "bytes"
        }
      ],
      "name": "safeTransferFrom",
      "outputs": [],
      "stateMutability": "nonpayable",
      "type": "function"
    },
    {
      "inputs": [
        {
          "internalType": "address",
          "name": "operator",
          "type": "address"
        },
        {
          "internalType": "bool",
          "name": "approved",
          "type": "bool"
        }
      ],
      "name": "setApprovalForAll",
      "outputs": [],
      "stateMutability": "nonpayable",
      "type": "function"
    },
    {
      "inputs": [
        {
          "internalType": "bytes4",
          "name": "interfaceId",
          "type": "bytes4"
        }
      ],
      "name": "supportsInterface",
      "outputs": [
        {
          "internalType": "bool",
          "name": "",
          "type": "bool"
        }
      ],
      "stateMutability": "view",
      "type": "function"
    },
    {
      "inputs": [],
      "name": "symbol",
      "outputs": [
        {
          "internalType": "string",
          "name": "",
          "type": "string"
        }
      ],
      "stateMutability": "view",
      "type": "function"
    },
    {
      "inputs": [
        {
          "internalType": "uint256",
          "name": "index",
          "type": "uint256"
        }
      ],
      "name": "tokenByIndex",
      "outputs": [
        {
          "internalType": "uint256",
          "name": "",
          "type": "uint256"
        }
      ],
      "stateMutability": "view",
      "type": "function"
    },
    {
      "inputs": [
        {
          "internalType": "address",
          "name": "owner",
          "type": "address"
        },
        {
          "internalType": "uint256",
          "name": "index",
          "type": "uint256"
        }
      ],
      "name": "tokenOfOwnerByIndex",
      "outputs": [
        {
          "internalType": "uint256",
          "name": "",
          "type": "uint256"
        }
      ],
      "stateMutability": "view",
      "type": "function"
    },
    {
      "inputs": [
        {
          "internalType": "uint256",
          "name": "tokenId",
          "type": "uint256"
        }
      ],
      "name": "tokenURI",
      "outputs": [
        {
          "internalType": "string",
          "name": "",
          "type": "string"
        }
      ],
      "stateMutability": "view",
      "type": "function"
    },
    {
      "inputs": [],
      "name": "totalSupply",
      "outputs": [
        {
          "internalType": "uint256",
          "name": "",
          "type": "uint256"
        }
      ],
      "stateMutability": "view",
      "type": "function"
    },
    {
      "inputs": [
        {
          "internalType": "address",
          "name": "from",
          "type": "address"
        },
        {
          "internalType": "address",
          "name": "to",
          "type": "address"
        },
        {
          "internalType": "uint256",
          "name": "tokenId",
          "type": "uint256"
        }
      ],
      "name": "transferFrom",
      "outputs": [],
      "stateMutability": "nonpayable",
      "type": "function"
    },
    {
      "inputs": [
        {
          "internalType": "uint256",
          "name": "tokenId",
          "type": "uint256"
        }
      ],
      "name": "updateNFTOf",
      "outputs": [],
      "stateMutability": "payable",
      "type": "function"
    }
  ],
  "bytecode": "0x608060405260405180610160016040528061012f81526020016200585d61012f9139600b908162000031919062000469565b503480156200003f57600080fd5b506040518060400160405280600781526020017f477269744e4654000000000000000000000000000000000000000000000000008152506040518060400160405280600481526020017f47726974000000000000000000000000000000000000000000000000000000008152508160009081620000bd919062000469565b508060019081620000cf919062000469565b5050506200011d6040518060400160405280601981526020017f5468697320697320477269744e465420636f6e74726163742e000000000000008152506200012360201b6200187c1760201c565b62000603565b620001c3816040516024016200013a9190620005df565b6040516020818303038152906040527f41304fac000000000000000000000000000000000000000000000000000000007bffffffffffffffffffffffffffffffffffffffffffffffffffffffff19166020820180517bffffffffffffffffffffffffffffffffffffffffffffffffffffffff8381831617835250505050620001c660201b60201c565b50565b60008151905060006a636f6e736f6c652e6c6f679050602083016000808483855afa5050505050565b600081519050919050565b7f4e487b7100000000000000000000000000000000000000000000000000000000600052604160045260246000fd5b7f4e487b7100000000000000000000000000000000000000000000000000000000600052602260045260246000fd5b600060028204905060018216806200027157607f821691505b60208210810362000287576200028662000229565b5b50919050565b60008190508160005260206000209050919050565b60006020601f8301049050919050565b600082821b905092915050565b600060088302620002f17fffffffffffffffffffffffffffffffffffffffffffffffffffffffffffffffff82620002b2565b620002fd8683620002b2565b95508019841693508086168417925050509392505050565b6000819050919050565b6000819050919050565b60006200034a620003446200033e8462000315565b6200031f565b62000315565b9050919050565b6000819050919050565b620003668362000329565b6200037e620003758262000351565b848454620002bf565b825550505050565b600090565b6200039562000386565b620003a28184846200035b565b505050565b5b81811015620003ca57620003be6000826200038b565b600181019050620003a8565b5050565b601f8211156200041957620003e3816200028d565b620003ee84620002a2565b81016020851015620003fe578190505b620004166200040d85620002a2565b830182620003a7565b50505b505050565b600082821c905092915050565b60006200043e600019846008026200041e565b1980831691505092915050565b60006200045983836200042b565b9150826002028217905092915050565b6200047482620001ef565b67ffffffffffffffff81111562000490576200048f620001fa565b5b6200049c825462000258565b620004a9828285620003ce565b600060209050601f831160018114620004e15760008415620004cc578287015190505b620004d885826200044b565b86555062000548565b601f198416620004f1866200028d565b60005b828110156200051b57848901518255600182019150602085019450602081019050620004f4565b868310156200053b578489015162000537601f8916826200042b565b8355505b6001600288020188555050505b505050505050565b600082825260208201905092915050565b60005b838110156200058157808201518184015260208101905062000564565b60008484015250505050565b6000601f19601f8301169050919050565b6000620005ab82620001ef565b620005b7818562000550565b9350620005c981856020860162000561565b620005d4816200058d565b840191505092915050565b60006020820190508181036000830152620005fb81846200059e565b905092915050565b61524a80620006136000396000f3fe6080604052600436106101355760003560e01c806370a08231116100ab578063b88d4fde1161006f578063b88d4fde14610470578063c17fbcdd14610499578063c87b56dd146104d6578063d004b03614610513578063ddb1373914610550578063e985e9c51461056c57610135565b806370a082311461036557806375adc730146103a257806395d89b41146103df578063a22cb4651461040a578063ab6520f41461043357610135565b806318160ddd116100fd57806318160ddd1461023157806323b872dd1461025c5780632f745c591461028557806342842e0e146102c25780634f6ccce7146102eb5780636352211e1461032857610135565b806301ffc9a71461013a578063031962231461017757806306fdde03146101a0578063081812fc146101cb578063095ea7b314610208575b600080fd5b34801561014657600080fd5b50610161600480360381019061015c9190613201565b6105a9565b60405161016e9190613249565b60405180910390f35b34801561018357600080fd5b5061019e600480360381019061019991906133e0565b610623565b005b3480156101ac57600080fd5b506101b5610773565b6040516101c291906134ea565b60405180910390f35b3480156101d757600080fd5b506101f260048036038101906101ed919061350c565b610805565b6040516101ff919061357a565b60405180910390f35b34801561021457600080fd5b5061022f600480360381019061022a91906135c1565b61084b565b005b34801561023d57600080fd5b50610246610962565b6040516102539190613610565b60405180910390f35b34801561026857600080fd5b50610283600480360381019061027e919061362b565b61096f565b005b34801561029157600080fd5b506102ac60048036038101906102a791906135c1565b6109cf565b6040516102b99190613610565b60405180910390f35b3480156102ce57600080fd5b506102e960048036038101906102e4919061362b565b610a74565b005b3480156102f757600080fd5b50610312600480360381019061030d919061350c565b610a94565b60405161031f9190613610565b60405180910390f35b34801561033457600080fd5b5061034f600480360381019061034a919061350c565b610b05565b60405161035c919061357a565b60405180910390f35b34801561037157600080fd5b5061038c6004803603810190610387919061367e565b610bb6565b6040516103999190613610565b60405180910390f35b3480156103ae57600080fd5b506103c960048036038101906103c4919061350c565b610c6d565b6040516103d69190613249565b60405180910390f35b3480156103eb57600080fd5b506103f4610eb8565b60405161040191906134ea565b60405180910390f35b34801561041657600080fd5b50610431600480360381019061042c91906136d7565b610f4a565b005b34801561043f57600080fd5b5061045a6004803603810190610455919061350c565b610f60565b6040516104679190613249565b60405180910390f35b34801561047c57600080fd5b50610497600480360381019061049291906137b8565b610fe4565b005b3480156104a557600080fd5b506104c060048036038101906104bb9190613903565b611046565b6040516104cd9190613afe565b60405180910390f35b3480156104e257600080fd5b506104fd60048036038101906104f8919061350c565b6112f4565b60405161050a91906134ea565b60405180910390f35b34801561051f57600080fd5b5061053a6004803603810190610535919061367e565b6115bb565b6040516105479190613bcf565b60405180910390f35b61056a6004803603810190610565919061350c565b61166b565b005b34801561057857600080fd5b50610593600480360381019061058e9190613bf1565b6117e8565b6040516105a09190613249565b60405180910390f35b60007f780e9d63000000000000000000000000000000000000000000000000000000007bffffffffffffffffffffffffffffffffffffffffffffffffffffffff1916827bffffffffffffffffffffffffffffffffffffffffffffffffffffffff1916148061061c575061061b82611915565b5b9050919050565b600061062f600c6119f7565b905060004290506106403383611a05565b6106636040518060600160405280602581526020016151b0602591398333611a23565b60006106728683866000611ac2565b905060006040518060c001604052808881526020018381526020018781526020018481526020018681526020016000815250905080600a600086815260200190815260200160002060008201518160000190816106cf9190613e3d565b5060208201518160010190816106e59190613e3d565b5060408201518160020190816106fb9190613e3d565b50606082015181600301556080820151816004015560a08201518160050155905050610727600c611ba4565b7f9d1095875d4fe0e32853dd9ac22c42c6b36ebd5fa41aa62044b3794a4864ba1e338589858a888b6040516107629796959493929190613f0f565b60405180910390a150505050505050565b60606000805461078290613c60565b80601f01602080910402602001604051908101604052809291908181526020018280546107ae90613c60565b80156107fb5780601f106107d0576101008083540402835291602001916107fb565b820191906000526020600020905b8154815290600101906020018083116107de57829003601f168201915b5050505050905090565b600061081082611bba565b6004600083815260200190815260200160002060009054906101000a900473ffffffffffffffffffffffffffffffffffffffff169050919050565b600061085682610b05565b90508073ffffffffffffffffffffffffffffffffffffffff168373ffffffffffffffffffffffffffffffffffffffff16036108c6576040517f08c379a00000000000000000000000000000000000000000000000000000000081526004016108bd90614005565b60405180910390fd5b8073ffffffffffffffffffffffffffffffffffffffff166108e5611c05565b73ffffffffffffffffffffffffffffffffffffffff16148061091457506109138161090e611c05565b6117e8565b5b610953576040517f08c379a000000000000000000000000000000000000000000000000000000000815260040161094a90614097565b60405180910390fd5b61095d8383611c0d565b505050565b6000600880549050905090565b61098061097a611c05565b82611cc6565b6109bf576040517f08c379a00000000000000000000000000000000000000000000000000000000081526004016109b690614129565b60405180910390fd5b6109ca838383611d5b565b505050565b60006109da83610bb6565b8210610a1b576040517f08c379a0000000000000000000000000000000000000000000000000000000008152600401610a12906141bb565b60405180910390fd5b600660008473ffffffffffffffffffffffffffffffffffffffff1673ffffffffffffffffffffffffffffffffffffffff168152602001908152602001600020600083815260200190815260200160002054905092915050565b610a8f83838360405180602001604052806000815250610fe4565b505050565b6000610a9e610962565b8210610adf576040517f08c379a0000000000000000000000000000000000000000000000000000000008152600401610ad69061424d565b60405180910390fd5b60088281548110610af357610af261426d565b5b90600052602060002001549050919050565b6000806002600084815260200190815260200160002060009054906101000a900473ffffffffffffffffffffffffffffffffffffffff169050600073ffffffffffffffffffffffffffffffffffffffff168173ffffffffffffffffffffffffffffffffffffffff1603610bad576040517f08c379a0000000000000000000000000000000000000000000000000000000008152600401610ba4906142e8565b60405180910390fd5b80915050919050565b60008073ffffffffffffffffffffffffffffffffffffffff168273ffffffffffffffffffffffffffffffffffffffff1603610c26576040517f08c379a0000000000000000000000000000000000000000000000000000000008152600401610c1d9061437a565b60405180910390fd5b600360008373ffffffffffffffffffffffffffffffffffffffff1673ffffffffffffffffffffffffffffffffffffffff168152602001908152602001600020549050919050565b600080600a60008481526020019081526020016000206040518060c0016040529081600082018054610c9e90613c60565b80601f0160208091040260200160405190810160405280929190818152602001828054610cca90613c60565b8015610d175780601f10610cec57610100808354040283529160200191610d17565b820191906000526020600020905b815481529060010190602001808311610cfa57829003601f168201915b50505050508152602001600182018054610d3090613c60565b80601f0160208091040260200160405190810160405280929190818152602001828054610d5c90613c60565b8015610da95780601f10610d7e57610100808354040283529160200191610da9565b820191906000526020600020905b815481529060010190602001808311610d8c57829003601f168201915b50505050508152602001600282018054610dc290613c60565b80601f0160208091040260200160405190810160405280929190818152602001828054610dee90613c60565b8015610e3b5780601f10610e1057610100808354040283529160200191610e3b565b820191906000526020600020905b815481529060010190602001808311610e1e57829003601f168201915b50505050508152602001600382015481526020016004820154815260200160058201548152505090506000428260800151109050610eae6040518060400160405280600f81526020017f6973457870697265644f663a202573000000000000000000000000000000000081525082611fc1565b8092505050919050565b606060018054610ec790613c60565b80601f0160208091040260200160405190810160405280929190818152602001828054610ef390613c60565b8015610f405780601f10610f1557610100808354040283529160200191610f40565b820191906000526020600020905b815481529060010190602001808311610f2357829003601f168201915b5050505050905090565b610f5c610f55611c05565b838361205d565b5050565b600080610f6c83610b05565b73ffffffffffffffffffffffffffffffffffffffff163373ffffffffffffffffffffffffffffffffffffffff16149050610fdb6040518060400160405280600d81526020017f69734f776e65724f663a2025730000000000000000000000000000000000000081525082611fc1565b80915050919050565b610ff5610fef611c05565b83611cc6565b611034576040517f08c379a000000000000000000000000000000000000000000000000000000000815260040161102b90614129565b60405180910390fd5b611040848484846121c9565b50505050565b60606000825167ffffffffffffffff8111156110655761106461327f565b5b60405190808252806020026020018201604052801561109e57816020015b61108b61315f565b8152602001906001900390816110835790505b50905060005b83518110156112ea57600a60008583815181106110c4576110c361426d565b5b602002602001015181526020019081526020016000206040518060c00160405290816000820180546110f590613c60565b80601f016020809104026020016040519081016040528092919081815260200182805461112190613c60565b801561116e5780601f106111435761010080835404028352916020019161116e565b820191906000526020600020905b81548152906001019060200180831161115157829003601f168201915b5050505050815260200160018201805461118790613c60565b80601f01602080910402602001604051908101604052809291908181526020018280546111b390613c60565b80156112005780601f106111d557610100808354040283529160200191611200565b820191906000526020600020905b8154815290600101906020018083116111e357829003601f168201915b5050505050815260200160028201805461121990613c60565b80601f016020809104026020016040519081016040528092919081815260200182805461124590613c60565b80156112925780601f1061126757610100808354040283529160200191611292565b820191906000526020600020905b81548152906001019060200180831161127557829003601f168201915b5050505050815260200160038201548152602001600482015481526020016005820154815250508282815181106112cc576112cb61426d565b5b602002602001018190525080806112e2906143c9565b9150506110a4565b8192505050919050565b60606112ff82611bba565b6000600a60008481526020019081526020016000206040518060c001604052908160008201805461132f90613c60565b80601f016020809104026020016040519081016040528092919081815260200182805461135b90613c60565b80156113a85780601f1061137d576101008083540402835291602001916113a8565b820191906000526020600020905b81548152906001019060200180831161138b57829003601f168201915b505050505081526020016001820180546113c190613c60565b80601f01602080910402602001604051908101604052809291908181526020018280546113ed90613c60565b801561143a5780601f1061140f5761010080835404028352916020019161143a565b820191906000526020600020905b81548152906001019060200180831161141d57829003601f168201915b5050505050815260200160028201805461145390613c60565b80601f016020809104026020016040519081016040528092919081815260200182805461147f90613c60565b80156114cc5780601f106114a1576101008083540402835291602001916114cc565b820191906000526020600020905b8154815290600101906020018083116114af57829003601f168201915b5050505050815260200160038201548152602001600482015481526020016005820154815250509050600061154b8260000151836040015184602001516115168660600151612225565b6115238760800151612225565b604051602001611537959493929190614829565b604051602081830303815290604052612385565b905061158c6040518060400160405280600f81526020017f656e636f6465644a736f6e3a20257300000000000000000000000000000000008152508261251c565b60008160405160200161159f9190614965565b6040516020818303038152906040529050809350505050919050565b606060006115c883610bb6565b67ffffffffffffffff8111156115e1576115e061327f565b5b60405190808252806020026020018201604052801561160f5781602001602082028036833780820191505090505b50905060005b61161e84610bb6565b8110156116615761162f84826109cf565b8282815181106116425761164161426d565b5b6020026020010181815250508080611659906143c9565b915050611615565b8192505050919050565b61167481610f60565b6116b3576040517f08c379a00000000000000000000000000000000000000000000000000000000081526004016116aa906149d3565b60405180910390fd5b6116bc81610c6d565b1561179d576116ff6040518060400160405280601f81526020017f54686973204e4654206973206166746572207468652064756520646174652e0081525061187c565b662386f26fc1000034106117595761174b6040518060400160405280601f81526020017f54686973204e4654206973206166746572207468652064756520646174652e0081525061187c565b611754816125b8565b611798565b6117976040518060400160405280601b81526020017f596f75206e65656420746f2070617920302e30312065746865722e000000000081525061187c565b5b6117e5565b6117db6040518060400160405280602081526020017f54686973204e4654206973206265666f7265207468652064756520646174652e81525061187c565b6117e4816125b8565b5b50565b6000600560008473ffffffffffffffffffffffffffffffffffffffff1673ffffffffffffffffffffffffffffffffffffffff16815260200190815260200160002060008373ffffffffffffffffffffffffffffffffffffffff1673ffffffffffffffffffffffffffffffffffffffff16815260200190815260200160002060009054906101000a900460ff16905092915050565b6119128160405160240161189091906134ea565b6040516020818303038152906040527f41304fac000000000000000000000000000000000000000000000000000000007bffffffffffffffffffffffffffffffffffffffffffffffffffffffff19166020820180517bffffffffffffffffffffffffffffffffffffffffffffffffffffffff8381831617835250505050612860565b50565b60007f80ac58cd000000000000000000000000000000000000000000000000000000007bffffffffffffffffffffffffffffffffffffffffffffffffffffffff1916827bffffffffffffffffffffffffffffffffffffffffffffffffffffffff191614806119e057507f5b5e139f000000000000000000000000000000000000000000000000000000007bffffffffffffffffffffffffffffffffffffffffffffffffffffffff1916827bffffffffffffffffffffffffffffffffffffffffffffffffffffffff1916145b806119f057506119ef82612889565b5b9050919050565b600081600001549050919050565b611a1f8282604051806020016040528060008152506128f3565b5050565b611abd838383604051602401611a3b939291906149f3565b6040516020818303038152906040527f1c7ec448000000000000000000000000000000000000000000000000000000007bffffffffffffffffffffffffffffffffffffffffffffffffffffffff19166020820180517bffffffffffffffffffffffffffffffffffffffffffffffffffffffff8381831617835250505050612860565b505050565b60606000808314611b08576040518060400160405280600881526020017f4163686965766564000000000000000000000000000000000000000000000000815250611b3f565b6040518060400160405280600b81526020017f496e2070726f67726573730000000000000000000000000000000000000000008152505b90506000600b8288604051602001611b5993929190614b4c565b60405160208183030381529060405290506000611b7582612385565b905080604051602001611b889190614bdf565b6040516020818303038152906040529350505050949350505050565b6001816000016000828254019250508190555050565b611bc38161294e565b611c02576040517f08c379a0000000000000000000000000000000000000000000000000000000008152600401611bf9906142e8565b60405180910390fd5b50565b600033905090565b816004600083815260200190815260200160002060006101000a81548173ffffffffffffffffffffffffffffffffffffffff021916908373ffffffffffffffffffffffffffffffffffffffff160217905550808273ffffffffffffffffffffffffffffffffffffffff16611c8083610b05565b73ffffffffffffffffffffffffffffffffffffffff167f8c5be1e5ebec7d5bd14f71427d1e84f3dd0314c0f7b2291e5b200ac8c7c3b92560405160405180910390a45050565b600080611cd283610b05565b90508073ffffffffffffffffffffffffffffffffffffffff168473ffffffffffffffffffffffffffffffffffffffff161480611d145750611d1381856117e8565b5b80611d5257508373ffffffffffffffffffffffffffffffffffffffff16611d3a84610805565b73ffffffffffffffffffffffffffffffffffffffff16145b91505092915050565b8273ffffffffffffffffffffffffffffffffffffffff16611d7b82610b05565b73ffffffffffffffffffffffffffffffffffffffff1614611dd1576040517f08c379a0000000000000000000000000000000000000000000000000000000008152600401611dc890614c73565b60405180910390fd5b600073ffffffffffffffffffffffffffffffffffffffff168273ffffffffffffffffffffffffffffffffffffffff1603611e40576040517f08c379a0000000000000000000000000000000000000000000000000000000008152600401611e3790614d05565b60405180910390fd5b611e4b8383836129ba565b611e56600082611c0d565b6001600360008573ffffffffffffffffffffffffffffffffffffffff1673ffffffffffffffffffffffffffffffffffffffff1681526020019081526020016000206000828254611ea69190614d25565b925050819055506001600360008473ffffffffffffffffffffffffffffffffffffffff1673ffffffffffffffffffffffffffffffffffffffff1681526020019081526020016000206000828254611efd9190614d59565b92505081905550816002600083815260200190815260200160002060006101000a81548173ffffffffffffffffffffffffffffffffffffffff021916908373ffffffffffffffffffffffffffffffffffffffff160217905550808273ffffffffffffffffffffffffffffffffffffffff168473ffffffffffffffffffffffffffffffffffffffff167fddf252ad1be2c89b69c2b068fc378daa952ba7f163c4a11628f55a4df523b3ef60405160405180910390a4611fbc838383612acc565b505050565b6120598282604051602401611fd7929190614d8d565b6040516020818303038152906040527fc3b55635000000000000000000000000000000000000000000000000000000007bffffffffffffffffffffffffffffffffffffffffffffffffffffffff19166020820180517bffffffffffffffffffffffffffffffffffffffffffffffffffffffff8381831617835250505050612860565b5050565b8173ffffffffffffffffffffffffffffffffffffffff168373ffffffffffffffffffffffffffffffffffffffff16036120cb576040517f08c379a00000000000000000000000000000000000000000000000000000000081526004016120c290614e09565b60405180910390fd5b80600560008573ffffffffffffffffffffffffffffffffffffffff1673ffffffffffffffffffffffffffffffffffffffff16815260200190815260200160002060008473ffffffffffffffffffffffffffffffffffffffff1673ffffffffffffffffffffffffffffffffffffffff16815260200190815260200160002060006101000a81548160ff0219169083151502179055508173ffffffffffffffffffffffffffffffffffffffff168373ffffffffffffffffffffffffffffffffffffffff167f17307eab39ab6107e8899845ad3d59bd9653f200f220920489ca2b5937696c31836040516121bc9190613249565b60405180910390a3505050565b6121d4848484611d5b565b6121e084848484612ad1565b61221f576040517f08c379a000000000000000000000000000000000000000000000000000000000815260040161221690614e9b565b60405180910390fd5b50505050565b60606000820361226c576040518060400160405280600181526020017f30000000000000000000000000000000000000000000000000000000000000008152509050612380565b600082905060005b6000821461229e578080612287906143c9565b915050600a826122979190614eea565b9150612274565b60008167ffffffffffffffff8111156122ba576122b961327f565b5b6040519080825280601f01601f1916602001820160405280156122ec5781602001600182028036833780820191505090505b5090505b60008514612379576001826123059190614d25565b9150600a856123149190614f1b565b60306123209190614d59565b60f81b8183815181106123365761233561426d565b5b60200101907effffffffffffffffffffffffffffffffffffffffffffffffffffffffffffff1916908160001a905350600a856123729190614eea565b94506122f0565b8093505050505b919050565b6060600082519050600081036123ad5760405180602001604052806000815250915050612517565b600060036002836123be9190614d59565b6123c89190614eea565b60046123d49190614f4c565b905060006020826123e59190614d59565b67ffffffffffffffff8111156123fe576123fd61327f565b5b6040519080825280601f01601f1916602001820160405280156124305781602001600182028036833780820191505090505b50905060006040518060600160405280604081526020016151d5604091399050600181016020830160005b868110156124d45760038101905062ffffff818a015116603f8160121c168401518060081b905060ff603f83600c1c1686015116810190508060081b905060ff603f8360061c1686015116810190508060081b905060ff603f831686015116810190508060e01b9050808452600484019350505061245b565b5060038606600181146124ee57600281146124fe57612509565b613d3d60f01b6002830352612509565b603d60f81b60018303525b508484525050819450505050505b919050565b6125b48282604051602401612532929190614f8e565b6040516020818303038152906040527f4b5c4277000000000000000000000000000000000000000000000000000000007bffffffffffffffffffffffffffffffffffffffffffffffffffffffff19166020820180517bffffffffffffffffffffffffffffffffffffffffffffffffffffffff8381831617835250505050612860565b5050565b6125c181611bba565b6000600a60008381526020019081526020016000206040518060c00160405290816000820180546125f190613c60565b80601f016020809104026020016040519081016040528092919081815260200182805461261d90613c60565b801561266a5780601f1061263f5761010080835404028352916020019161266a565b820191906000526020600020905b81548152906001019060200180831161264d57829003601f168201915b5050505050815260200160018201805461268390613c60565b80601f01602080910402602001604051908101604052809291908181526020018280546126af90613c60565b80156126fc5780601f106126d1576101008083540402835291602001916126fc565b820191906000526020600020905b8154815290600101906020018083116126df57829003601f168201915b5050505050815260200160028201805461271590613c60565b80601f016020809104026020016040519081016040528092919081815260200182805461274190613c60565b801561278e5780601f106127635761010080835404028352916020019161278e565b820191906000526020600020905b81548152906001019060200180831161277157829003601f168201915b5050505050815260200160038201548152602001600482015481526020016005820154815250509050428160a00181815250506127dd8160000151826060015183608001518460a00151611ac2565b816020018190525080600a6000848152602001908152602001600020600082015181600001908161280e9190613e3d565b5060208201518160010190816128249190613e3d565b50604082015181600201908161283a9190613e3d565b50606082015181600301556080820151816004015560a082015181600501559050505050565b60008151905060006a636f6e736f6c652e6c6f679050602083016000808483855afa5050505050565b60007f01ffc9a7000000000000000000000000000000000000000000000000000000007bffffffffffffffffffffffffffffffffffffffffffffffffffffffff1916827bffffffffffffffffffffffffffffffffffffffffffffffffffffffff1916149050919050565b6128fd8383612c58565b61290a6000848484612ad1565b612949576040517f08c379a000000000000000000000000000000000000000000000000000000000815260040161294090614e9b565b60405180910390fd5b505050565b60008073ffffffffffffffffffffffffffffffffffffffff166002600084815260200190815260200160002060009054906101000a900473ffffffffffffffffffffffffffffffffffffffff1673ffffffffffffffffffffffffffffffffffffffff1614159050919050565b6129c5838383612e31565b600073ffffffffffffffffffffffffffffffffffffffff168373ffffffffffffffffffffffffffffffffffffffff1603612a0757612a0281612e36565b612a46565b8173ffffffffffffffffffffffffffffffffffffffff168373ffffffffffffffffffffffffffffffffffffffff1614612a4557612a448382612e7f565b5b5b600073ffffffffffffffffffffffffffffffffffffffff168273ffffffffffffffffffffffffffffffffffffffff1603612a8857612a8381612fec565b612ac7565b8273ffffffffffffffffffffffffffffffffffffffff168273ffffffffffffffffffffffffffffffffffffffff1614612ac657612ac582826130bd565b5b5b505050565b505050565b6000612af28473ffffffffffffffffffffffffffffffffffffffff1661313c565b15612c4b578373ffffffffffffffffffffffffffffffffffffffff1663150b7a02612b1b611c05565b8786866040518563ffffffff1660e01b8152600401612b3d949392919061501a565b6020604051808303816000875af1925050508015612b7957506040513d601f19601f82011682018060405250810190612b76919061507b565b60015b612bfb573d8060008114612ba9576040519150601f19603f3d011682016040523d82523d6000602084013e612bae565b606091505b506000815103612bf3576040517f08c379a0000000000000000000000000000000000000000000000000000000008152600401612bea90614e9b565b60405180910390fd5b805181602001fd5b63150b7a0260e01b7bffffffffffffffffffffffffffffffffffffffffffffffffffffffff1916817bffffffffffffffffffffffffffffffffffffffffffffffffffffffff191614915050612c50565b600190505b949350505050565b600073ffffffffffffffffffffffffffffffffffffffff168273ffffffffffffffffffffffffffffffffffffffff1603612cc7576040517f08c379a0000000000000000000000000000000000000000000000000000000008152600401612cbe906150f4565b60405180910390fd5b612cd08161294e565b15612d10576040517f08c379a0000000000000000000000000000000000000000000000000000000008152600401612d0790615160565b60405180910390fd5b612d1c600083836129ba565b6001600360008473ffffffffffffffffffffffffffffffffffffffff1673ffffffffffffffffffffffffffffffffffffffff1681526020019081526020016000206000828254612d6c9190614d59565b92505081905550816002600083815260200190815260200160002060006101000a81548173ffffffffffffffffffffffffffffffffffffffff021916908373ffffffffffffffffffffffffffffffffffffffff160217905550808273ffffffffffffffffffffffffffffffffffffffff16600073ffffffffffffffffffffffffffffffffffffffff167fddf252ad1be2c89b69c2b068fc378daa952ba7f163c4a11628f55a4df523b3ef60405160405180910390a4612e2d60008383612acc565b5050565b505050565b6008805490506009600083815260200190815260200160002081905550600881908060018154018082558091505060019003906000526020600020016000909190919091505550565b60006001612e8c84610bb6565b612e969190614d25565b9050600060076000848152602001908152602001600020549050818114612f7b576000600660008673ffffffffffffffffffffffffffffffffffffffff1673ffffffffffffffffffffffffffffffffffffffff168152602001908152602001600020600084815260200190815260200160002054905080600660008773ffffffffffffffffffffffffffffffffffffffff1673ffffffffffffffffffffffffffffffffffffffff168152602001908152602001600020600084815260200190815260200160002081905550816007600083815260200190815260200160002081905550505b6007600084815260200190815260200160002060009055600660008573ffffffffffffffffffffffffffffffffffffffff1673ffffffffffffffffffffffffffffffffffffffff16815260200190815260200160002060008381526020019081526020016000206000905550505050565b600060016008805490506130009190614d25565b90506000600960008481526020019081526020016000205490506000600883815481106130305761302f61426d565b5b9060005260206000200154905080600883815481106130525761305161426d565b5b9060005260206000200181905550816009600083815260200190815260200160002081905550600960008581526020019081526020016000206000905560088054806130a1576130a0615180565b5b6001900381819060005260206000200160009055905550505050565b60006130c883610bb6565b905081600660008573ffffffffffffffffffffffffffffffffffffffff1673ffffffffffffffffffffffffffffffffffffffff168152602001908152602001600020600083815260200190815260200160002081905550806007600084815260200190815260200160002081905550505050565b6000808273ffffffffffffffffffffffffffffffffffffffff163b119050919050565b6040518060c001604052806060815260200160608152602001606081526020016000815260200160008152602001600081525090565b6000604051905090565b600080fd5b600080fd5b60007fffffffff0000000000000000000000000000000000000000000000000000000082169050919050565b6131de816131a9565b81146131e957600080fd5b50565b6000813590506131fb816131d5565b92915050565b6000602082840312156132175761321661319f565b5b6000613225848285016131ec565b91505092915050565b60008115159050919050565b6132438161322e565b82525050565b600060208201905061325e600083018461323a565b92915050565b600080fd5b600080fd5b6000601f19601f8301169050919050565b7f4e487b7100000000000000000000000000000000000000000000000000000000600052604160045260246000fd5b6132b78261326e565b810181811067ffffffffffffffff821117156132d6576132d561327f565b5b80604052505050565b60006132e9613195565b90506132f582826132ae565b919050565b600067ffffffffffffffff8211156133155761331461327f565b5b61331e8261326e565b9050602081019050919050565b82818337600083830152505050565b600061334d613348846132fa565b6132df565b90508281526020810184848401111561336957613368613269565b5b61337484828561332b565b509392505050565b600082601f83011261339157613390613264565b5b81356133a184826020860161333a565b91505092915050565b6000819050919050565b6133bd816133aa565b81146133c857600080fd5b50565b6000813590506133da816133b4565b92915050565b6000806000606084860312156133f9576133f861319f565b5b600084013567ffffffffffffffff811115613417576134166131a4565b5b6134238682870161337c565b935050602084013567ffffffffffffffff811115613444576134436131a4565b5b6134508682870161337c565b9250506040613461868287016133cb565b9150509250925092565b600081519050919050565b600082825260208201905092915050565b60005b838110156134a557808201518184015260208101905061348a565b60008484015250505050565b60006134bc8261346b565b6134c68185613476565b93506134d6818560208601613487565b6134df8161326e565b840191505092915050565b6000602082019050818103600083015261350481846134b1565b905092915050565b6000602082840312156135225761352161319f565b5b6000613530848285016133cb565b91505092915050565b600073ffffffffffffffffffffffffffffffffffffffff82169050919050565b600061356482613539565b9050919050565b61357481613559565b82525050565b600060208201905061358f600083018461356b565b92915050565b61359e81613559565b81146135a957600080fd5b50565b6000813590506135bb81613595565b92915050565b600080604083850312156135d8576135d761319f565b5b60006135e6858286016135ac565b92505060206135f7858286016133cb565b9150509250929050565b61360a816133aa565b82525050565b60006020820190506136256000830184613601565b92915050565b6000806000606084860312156136445761364361319f565b5b6000613652868287016135ac565b9350506020613663868287016135ac565b9250506040613674868287016133cb565b9150509250925092565b6000602082840312156136945761369361319f565b5b60006136a2848285016135ac565b91505092915050565b6136b48161322e565b81146136bf57600080fd5b50565b6000813590506136d1816136ab565b92915050565b600080604083850312156136ee576136ed61319f565b5b60006136fc858286016135ac565b925050602061370d858286016136c2565b9150509250929050565b600067ffffffffffffffff8211156137325761373161327f565b5b61373b8261326e565b9050602081019050919050565b600061375b61375684613717565b6132df565b90508281526020810184848401111561377757613776613269565b5b61378284828561332b565b509392505050565b600082601f83011261379f5761379e613264565b5b81356137af848260208601613748565b91505092915050565b600080600080608085870312156137d2576137d161319f565b5b60006137e0878288016135ac565b94505060206137f1878288016135ac565b9350506040613802878288016133cb565b925050606085013567ffffffffffffffff811115613823576138226131a4565b5b61382f8782880161378a565b91505092959194509250565b600067ffffffffffffffff8211156138565761385561327f565b5b602082029050602081019050919050565b600080fd5b600061387f61387a8461383b565b6132df565b905080838252602082019050602084028301858111156138a2576138a1613867565b5b835b818110156138cb57806138b788826133cb565b8452602084019350506020810190506138a4565b5050509392505050565b600082601f8301126138ea576138e9613264565b5b81356138fa84826020860161386c565b91505092915050565b6000602082840312156139195761391861319f565b5b600082013567ffffffffffffffff811115613937576139366131a4565b5b613943848285016138d5565b91505092915050565b600081519050919050565b600082825260208201905092915050565b6000819050602082019050919050565b600082825260208201905092915050565b60006139948261346b565b61399e8185613978565b93506139ae818560208601613487565b6139b78161326e565b840191505092915050565b6139cb816133aa565b82525050565b600060c08301600083015184820360008601526139ee8282613989565b91505060208301518482036020860152613a088282613989565b91505060408301518482036040860152613a228282613989565b9150506060830151613a3760608601826139c2565b506080830151613a4a60808601826139c2565b5060a0830151613a5d60a08601826139c2565b508091505092915050565b6000613a7483836139d1565b905092915050565b6000602082019050919050565b6000613a948261394c565b613a9e8185613957565b935083602082028501613ab085613968565b8060005b85811015613aec5784840389528151613acd8582613a68565b9450613ad883613a7c565b925060208a01995050600181019050613ab4565b50829750879550505050505092915050565b60006020820190508181036000830152613b188184613a89565b905092915050565b600081519050919050565b600082825260208201905092915050565b6000819050602082019050919050565b6000613b5883836139c2565b60208301905092915050565b6000602082019050919050565b6000613b7c82613b20565b613b868185613b2b565b9350613b9183613b3c565b8060005b83811015613bc2578151613ba98882613b4c565b9750613bb483613b64565b925050600181019050613b95565b5085935050505092915050565b60006020820190508181036000830152613be98184613b71565b905092915050565b60008060408385031215613c0857613c0761319f565b5b6000613c16858286016135ac565b9250506020613c27858286016135ac565b9150509250929050565b7f4e487b7100000000000000000000000000000000000000000000000000000000600052602260045260246000fd5b60006002820490506001821680613c7857607f821691505b602082108103613c8b57613c8a613c31565b5b50919050565b60008190508160005260206000209050919050565b60006020601f8301049050919050565b600082821b905092915050565b600060088302613cf37fffffffffffffffffffffffffffffffffffffffffffffffffffffffffffffffff82613cb6565b613cfd8683613cb6565b95508019841693508086168417925050509392505050565b6000819050919050565b6000613d3a613d35613d30846133aa565b613d15565b6133aa565b9050919050565b6000819050919050565b613d5483613d1f565b613d68613d6082613d41565b848454613cc3565b825550505050565b600090565b613d7d613d70565b613d88818484613d4b565b505050565b5b81811015613dac57613da1600082613d75565b600181019050613d8e565b5050565b601f821115613df157613dc281613c91565b613dcb84613ca6565b81016020851015613dda578190505b613dee613de685613ca6565b830182613d8d565b50505b505050565b600082821c905092915050565b6000613e1460001984600802613df6565b1980831691505092915050565b6000613e2d8383613e03565b9150826002028217905092915050565b613e468261346b565b67ffffffffffffffff811115613e5f57613e5e61327f565b5b613e698254613c60565b613e74828285613db0565b600060209050601f831160018114613ea75760008415613e95578287015190505b613e9f8582613e21565b865550613f07565b601f198416613eb586613c91565b60005b82811015613edd57848901518255600182019150602085019450602081019050613eb8565b86831015613efa5784890151613ef6601f891682613e03565b8355505b6001600288020188555050505b505050505050565b600060e082019050613f24600083018a61356b565b613f316020830189613601565b8181036040830152613f4381886134b1565b90508181036060830152613f5781876134b1565b90508181036080830152613f6b81866134b1565b9050613f7a60a0830185613601565b613f8760c0830184613601565b98975050505050505050565b7f4552433732313a20617070726f76616c20746f2063757272656e74206f776e6560008201527f7200000000000000000000000000000000000000000000000000000000000000602082015250565b6000613fef602183613476565b9150613ffa82613f93565b604082019050919050565b6000602082019050818103600083015261401e81613fe2565b9050919050565b7f4552433732313a20617070726f76652063616c6c6572206973206e6f7420746f60008201527f6b656e206f776e6572206e6f7220617070726f76656420666f7220616c6c0000602082015250565b6000614081603e83613476565b915061408c82614025565b604082019050919050565b600060208201905081810360008301526140b081614074565b9050919050565b7f4552433732313a2063616c6c6572206973206e6f7420746f6b656e206f776e6560008201527f72206e6f7220617070726f766564000000000000000000000000000000000000602082015250565b6000614113602e83613476565b915061411e826140b7565b604082019050919050565b6000602082019050818103600083015261414281614106565b9050919050565b7f455243373231456e756d657261626c653a206f776e657220696e646578206f7560008201527f74206f6620626f756e6473000000000000000000000000000000000000000000602082015250565b60006141a5602b83613476565b91506141b082614149565b604082019050919050565b600060208201905081810360008301526141d481614198565b9050919050565b7f455243373231456e756d657261626c653a20676c6f62616c20696e646578206f60008201527f7574206f6620626f756e64730000000000000000000000000000000000000000602082015250565b6000614237602c83613476565b9150614242826141db565b604082019050919050565b600060208201905081810360008301526142668161422a565b9050919050565b7f4e487b7100000000000000000000000000000000000000000000000000000000600052603260045260246000fd5b7f4552433732313a20696e76616c696420746f6b656e2049440000000000000000600082015250565b60006142d2601883613476565b91506142dd8261429c565b602082019050919050565b60006020820190508181036000830152614301816142c5565b9050919050565b7f4552433732313a2061646472657373207a65726f206973206e6f74206120766160008201527f6c6964206f776e65720000000000000000000000000000000000000000000000602082015250565b6000614364602983613476565b915061436f82614308565b604082019050919050565b6000602082019050818103600083015261439381614357565b9050919050565b7f4e487b7100000000000000000000000000000000000000000000000000000000600052601160045260246000fd5b60006143d4826133aa565b91507fffffffffffffffffffffffffffffffffffffffffffffffffffffffffffffffff82036144065761440561439a565b5b600182019050919050565b600081905092915050565b7f7b226e616d65223a000000000000000000000000000000000000000000000000600082015250565b6000614452600883614411565b915061445d8261441c565b600882019050919050565b7f2200000000000000000000000000000000000000000000000000000000000000600082015250565b600061449e600183614411565b91506144a982614468565b600182019050919050565b60006144bf8261346b565b6144c98185614411565b93506144d9818560208601613487565b80840191505092915050565b7f222c000000000000000000000000000000000000000000000000000000000000600082015250565b600061451b600283614411565b9150614526826144e5565b600282019050919050565b7f226465736372697074696f6e223a000000000000000000000000000000000000600082015250565b6000614567600e83614411565b915061457282614531565b600e82019050919050565b7f22696d616765223a202200000000000000000000000000000000000000000000600082015250565b60006145b3600a83614411565b91506145be8261457d565b600a82019050919050565b7f2261747472696275746573223a205b0000000000000000000000000000000000600082015250565b60006145ff600f83614411565b915061460a826145c9565b600f82019050919050565b7f7b22646973706c61795f74797065223a202264617465222c202274726169745f60008201527f74797065223a2022637265617465645f6174222c202276616c7565223a202200602082015250565b6000614671603f83614411565b915061467c82614615565b603f82019050919050565b7f227d2c0000000000000000000000000000000000000000000000000000000000600082015250565b60006146bd600383614411565b91506146c882614687565b600382019050919050565b7f7b22646973706c61795f74797065223a202264617465222c202274726169745f60008201527f74797065223a20226475655f64617465222c202276616c7565223a2022000000602082015250565b600061472f603d83614411565b915061473a826146d3565b603d82019050919050565b7f227d000000000000000000000000000000000000000000000000000000000000600082015250565b600061477b600283614411565b915061478682614745565b600282019050919050565b7f5d00000000000000000000000000000000000000000000000000000000000000600082015250565b60006147c7600183614411565b91506147d282614791565b600182019050919050565b7f7d00000000000000000000000000000000000000000000000000000000000000600082015250565b6000614813600183614411565b915061481e826147dd565b600182019050919050565b600061483482614445565b915061483f82614491565b915061484b82886144b4565b91506148568261450e565b91506148618261455a565b915061486c82614491565b915061487882876144b4565b91506148838261450e565b915061488e826145a6565b915061489a82866144b4565b91506148a58261450e565b91506148b0826145f2565b91506148bb82614664565b91506148c782856144b4565b91506148d2826146b0565b91506148dd82614722565b91506148e982846144b4565b91506148f48261476e565b91506148ff826147ba565b915061490a82614806565b91508190509695505050505050565b7f646174613a6170706c69636174696f6e2f6a736f6e3b6261736536342c000000600082015250565b600061494f601d83614411565b915061495a82614919565b601d82019050919050565b600061497082614942565b915061497c82846144b4565b915081905092915050565b7f596f7520617265206e6f74206f776e6572206f662074686973204e46542e0000600082015250565b60006149bd601e83613476565b91506149c882614987565b602082019050919050565b600060208201905081810360008301526149ec816149b0565b9050919050565b60006060820190508181036000830152614a0d81866134b1565b9050614a1c6020830185613601565b614a29604083018461356b565b949350505050565b60008154614a3e81613c60565b614a488186614411565b94506001821660008114614a635760018114614a7857614aab565b60ff1983168652811515820286019350614aab565b614a8185613c91565b60005b83811015614aa357815481890152600182019150602081019050614a84565b838801955050505b50505092915050565b7f2000000000000000000000000000000000000000000000000000000000000000600082015250565b6000614aea600183614411565b9150614af582614ab4565b600182019050919050565b7f3c2f746578743e3c2f7376673e00000000000000000000000000000000000000600082015250565b6000614b36600d83614411565b9150614b4182614b00565b600d82019050919050565b6000614b588286614a31565b9150614b6482856144b4565b9150614b6f82614add565b9150614b7b82846144b4565b9150614b8682614b29565b9150819050949350505050565b7f646174613a696d6167652f7376672b786d6c3b6261736536342c000000000000600082015250565b6000614bc9601a83614411565b9150614bd482614b93565b601a82019050919050565b6000614bea82614bbc565b9150614bf682846144b4565b915081905092915050565b7f4552433732313a207472616e736665722066726f6d20696e636f72726563742060008201527f6f776e6572000000000000000000000000000000000000000000000000000000602082015250565b6000614c5d602583613476565b9150614c6882614c01565b604082019050919050565b60006020820190508181036000830152614c8c81614c50565b9050919050565b7f4552433732313a207472616e7366657220746f20746865207a65726f2061646460008201527f7265737300000000000000000000000000000000000000000000000000000000602082015250565b6000614cef602483613476565b9150614cfa82614c93565b604082019050919050565b60006020820190508181036000830152614d1e81614ce2565b9050919050565b6000614d30826133aa565b9150614d3b836133aa565b9250828203905081811115614d5357614d5261439a565b5b92915050565b6000614d64826133aa565b9150614d6f836133aa565b9250828201905080821115614d8757614d8661439a565b5b92915050565b60006040820190508181036000830152614da781856134b1565b9050614db6602083018461323a565b9392505050565b7f4552433732313a20617070726f766520746f2063616c6c657200000000000000600082015250565b6000614df3601983613476565b9150614dfe82614dbd565b602082019050919050565b60006020820190508181036000830152614e2281614de6565b9050919050565b7f4552433732313a207472616e7366657220746f206e6f6e20455243373231526560008201527f63656976657220696d706c656d656e7465720000000000000000000000000000602082015250565b6000614e85603283613476565b9150614e9082614e29565b604082019050919050565b60006020820190508181036000830152614eb481614e78565b9050919050565b7f4e487b7100000000000000000000000000000000000000000000000000000000600052601260045260246000fd5b6000614ef5826133aa565b9150614f00836133aa565b925082614f1057614f0f614ebb565b5b828204905092915050565b6000614f26826133aa565b9150614f31836133aa565b925082614f4157614f40614ebb565b5b828206905092915050565b6000614f57826133aa565b9150614f62836133aa565b9250828202614f70816133aa565b91508282048414831517614f8757614f8661439a565b5b5092915050565b60006040820190508181036000830152614fa881856134b1565b90508181036020830152614fbc81846134b1565b90509392505050565b600081519050919050565b600082825260208201905092915050565b6000614fec82614fc5565b614ff68185614fd0565b9350615006818560208601613487565b61500f8161326e565b840191505092915050565b600060808201905061502f600083018761356b565b61503c602083018661356b565b6150496040830185613601565b818103606083015261505b8184614fe1565b905095945050505050565b600081519050615075816131d5565b92915050565b6000602082840312156150915761509061319f565b5b600061509f84828501615066565b91505092915050565b7f4552433732313a206d696e7420746f20746865207a65726f2061646472657373600082015250565b60006150de602083613476565b91506150e9826150a8565b602082019050919050565b6000602082019050818103600083015261510d816150d1565b9050919050565b7f4552433732313a20746f6b656e20616c7265616479206d696e74656400000000600082015250565b600061514a601c83613476565b915061515582615114565b602082019050919050565b600060208201905081810360008301526151798161513d565b9050919050565b7f4e487b7100000000000000000000000000000000000000000000000000000000600052603160045260246000fdfe416e204e465420772f20494420257320686173206265656e206d696e74656420746f2025734142434445464748494a4b4c4d4e4f505152535455565758595a6162636465666768696a6b6c6d6e6f707172737475767778797a303132333435363738392b2fa2646970667358221220dfe95e8fb6c1175b9ff6345a776562ba5824f007840478204f7694dbed7d0c1d64736f6c634300081100333c73766720786d6c6e733d27687474703a2f2f7777772e77332e6f72672f323030302f73766727207072657365727665417370656374526174696f3d27784d696e594d696e206d656574272076696577426f783d273020302033353020333530273e3c7374796c653e2e62617365207b2066696c6c3a2077686974653b20666f6e742d66616d696c793a2073657269663b20666f6e742d73697a653a20323470783b207d3c2f7374796c653e3c726563742077696474683d273130302527206865696768743d2731303025272066696c6c3d27626c61636b27202f3e3c7465787420783d273530252720793d273530252720636c6173733d27626173652720646f6d696e616e742d626173656c696e653d276d6964646c652720746578742d616e63686f723d276d6964646c65273e",
  "linkReferences": {},
  "deployedLinkReferences": {}
}